:100000000C9444010C9475010C9475010C947501C9
:100010000C9475010C9475010C9475010C94750188
:100020000C9475010C9475010C9475010C94750178
:100030000C9475010C9475010C9475010C94750168
:100040000C9475010C94940A0C9475010C94750130
:100050000C9475010C9475010C9475010C94C009F5
:100060000C9475010C9475010C9475010C94750138
:100070000C9475010C9475010C9475010C94750128
:100080000C94660A0C9475010C9475010C9475011E
:100090000C9475010C9475010C9475010C94C20AB2
:1000A0000C9475010C9475010C94380A0C9475012C
:1000B0000C9475010C9475010C9475010C940A0A4A
:1000C0000C9475010C9475010C9475010C947501D8
:1000D0000C9475010C9475010C9475010C947501C8
:1000E0000C9475010C9436020C949A020C9428021C
:1000F0000C9410070C940B030C945F020C940307F0
:100100000C9455020C94CE100C943D020C943A02BF
:100110000C9453080C9447020C943D070C942E0247
:100120000C9409070C949B060C94CB020C94420C83
:100130000C94D6080C945B020C94BD040C946902D8
:100140000C9451020C946D020C9406070C9443021B
:100150000C944D020C9402070C9468020C946302F8
:100160000C94320200002100240027002A002D00F8
:100170003000330001010000040107010A01000002
:100180002200250028002B002E003100340002013F
:100190000000050108010B010000200023002600DB
:1001A00029002C002F00320000010000030106018D
:1001B00009010505050507050808080802020202ED
:1001C0000A0A0808040404040101010101010101F3
:1001D0000303030303030303040707070C0C0C0CBE
:1001E0000C0C0C0C020202020606060606060606A7
:1001F0000B0B0B0B0B0B0B0B010210202008081034
:100200002040102040800201020108040201010286
:10021000040810204080804020100804020180045F
:1002200002018040201008040201080402010102BA
:1002300004081020408001020408102040800000C3
:100240000A0B02090C0D0E08070304010000000050
:10025000000000000000000000000000000000009E
:10026000000000000000000000001211100000005B
:10027000000000000000000000000000000000007E
:1002800000000000420CCE1011241FBECFEFD1E2BF
:10029000DEBFCDBF00E00CBF13E0A0E0B2E0E0E6BF
:1002A000F9E200E00BBF02C007900D92AA33B1073C
:1002B000D9F725E0AAE3B3E001C01D92AA30B20746
:1002C000E1F711E0C3E4D1E000E006C021970109A5
:1002D000802FFE010E947712C234D10780E0080708
:1002E000A9F70E94FD0C0C949E140C94000096E05B
:1002F000899FD0011124A557BB4F90967C936E9394
:100300005F9791E091969C939197E091F804F0911A
:10031000F9049091F704992339F0309751F0811145
:1003200008C08091A7041994309719F05C968C91BD
:10033000FACF0895CF92DF92EF92FF920F931F931F
:1003400096E0899FF0011124E557FB4F11A2278DFC
:1003500030A12130310551F178F02230310509F416
:1003600051C02330310509F452C01F910F91FF9005
:10037000EF90DF90CF9008956623B9F361E070E0CD
:100380000E9477012FB7F8948091690490916A04D4
:10039000A0916B04B0916C042FBF8093E304909301
:1003A000E404A093E504B093E604DFCF9FB7F8948C
:1003B000C0906904D0906A04E0906B04F0906C04E3
:1003C0009FBF0091E3041091E4042091E504309173
:1003D000E604C01AD10AE20AF30A0091F50410916A
:1003E000F60430E020E00C151D052E053F0550F405
:1003F00062E070E01F910F91FF90EF90DF90CF903F
:100400000C9477016111B1CF63E070E0F3CF70E03D
:1004100060E0F0CF8150823108F05AC0E82FF0E060
:100420008827EA5EFD4F8F4F0C94771236023A020E
:1004300028022E02320268023D02430247024D02A8
:10044000510255025B025F026802630269026D029B
:10045000809180008F778093800008958091800044
:100460008F7DF9CF80918000877FF5CF84B58F771E
:1004700084BD089584B58F7DFBCF8091B0008F77C8
:100480008093B00008958091B0008F7DF9CF809166
:1004900090008F77809390000895809190008F7DD9
:1004A000F9CF80919000877FF5CF8091A0008F7762
:1004B0008093A00008958091A0008F7DF9CF809156
:1004C000A000877FF5CF809120018F778093200156
:1004D0000895809120018F7DF9CF80912001877F41
:1004E000F5CFCF93DF93282F30E0F901E25CFD4F89
:1004F0008491F901E850FE4FD491F901EE54FE4F7A
:10050000C491CC23A1F081110E940A02EC2FF0E0EB
:10051000EE0FFF1FE856FE4FA591B491EC91ED232D
:1005200081E090E009F480E0DF91CF91089580E0D0
:1005300090E0FACF862F0C9471021F93CF93DF9334
:10054000282F30E0F901E25CFD4F8491F901E85079
:10055000FE4FD491F901EE54FE4FC491CC23A9F083
:10056000162F81110E940A02EC2FF0E0EE0FFF1F00
:10057000E258FE4FA591B4918FB7F894EC91111108
:1005800008C0D095DE23DC938FBFDF91CF911F9100
:100590000895DE2BF8CF862F642F0C949D02CF9305
:1005A000DF9390E0FC01E850FE4F24918E549E4F63
:1005B000FC0184918823C9F090E0880F991FFC0109
:1005C000EC59FE4FA591B491FC01E258FE4FC59144
:1005D000D49161110DC09FB7F8948C91209582231E
:1005E0008C938881282328839FBFDF91CF91089522
:1005F000623051F49FB7F8943C91822F8095832309
:100600008C93E8812E2BEFCF8FB7F894EC912E2BA3
:100610002C938FBFEACF862F642F0C94CF026F925A
:100620007F928F929F92AF92BF92CF92DF92EF9282
:10063000FF920F931F93CF93DF9381E08093F70492
:100640008FB7F8944091690450916A0460916B04EB
:1006500070916C048FBF8091E7049091E804A091A1
:10066000E904B091EA04481B590B6A0B7B0B80919B
:10067000F3049091F404B0E0A0E084179507A60776
:10068000B70708F01DC1C0E08091F104C81760F4FD
:10069000E091ED04F091EE04EC0FF11D62E0808139
:1006A0000E94CF02CF5FF0CF712C812C912C54018E
:1006B00083948091F204781608F05FC0072D10E053
:1006C000E091EF04F091F004E00FF11F61E0808110
:1006D0000E94CF02E091EF04F091F004E00FF11FCF
:1006E00060E080810E949D02D501C401072C04C0F6
:1006F000880F991FAA1FBB1F0A94D2F76C017C01B7
:10070000E094F094612C8091F1046816F8F4C62D01
:10071000D0E0E091ED04F091EE04EC0FFD1F80813C
:100720000E9471022496CC0FDD1FC557DB4F892B29
:1007300041F4888199818C299D29998388836394C8
:10074000E2CF888199818E219F21F7CFE091EF043C
:10075000F091F004E00FF11F61E080810E949D02A2
:100760008091EF049091F004080F191F60E0F801E8
:1007700080810E94CF0273949CCFCBE8D4E0FE012D
:100780008FEF9FEF278D30A1232B21F4148E968FAE
:10079000858F11A2369624E0E73CF20799F7F12CF9
:1007A00096E0D92E8091F104F81608F050C0E12CA3
:1007B0000F2D10E0000F111F0D561B4F2091F2045A
:1007C000E21608F042C0F801608171810E2C02C06F
:1007D000769567950A94E2F7F29E900111242E0D0A
:1007E000311DEBE8F4E080E0458D568D2417350788
:1007F00009F46AC08F5F36968A30B1F760FF23C074
:10080000EBE8F4E090E080E0448D411117C0E09106
:10081000EB04F091EC04E20FF31F4081D89EF0014D
:10082000D99EF00D1124E557FB4F448F368F258F4D
:1008300010A2178E61E00E949A0105C001963696BB
:100840008A30910509F7E394B9CFF394ABCF80E0F8
:1008500099A19111892F2696F4E0C73CDF07C1F7D3
:100860009FB7F8944091690450916A0460916B04B9
:1008700070916C049FBF4093E7045093E804609329
:10088000E9047093EA048823D9F08091AC048823AA
:10089000B9F08091AA049091AB04019789F48091FA
:1008A000A704DF91CF911F910F91FF90EF90DF9000
:1008B000CF90BF90AF909F908F907F906F90089552
:1008C0001092F70480E0EDCF6170B5CF3FB7F89498
:1008D0008091650490916604A0916704B0916804CA
:1008E00026B5A89B05C02F3F19F00196A11DB11D8B
:1008F0003FBFBA2FA92F982F8827BC01CD01620FC7
:10090000711D811D911D42E0660F771F881F991F81
:100910004A95D1F708958F929F92AF92BF92CF924E
:10092000DF92EF92FF924B015C010E9466046B0123
:100930007C010E9466046C197D098E099F09683E3E
:10094000734081059105A8F321E0821A9108A1085E
:10095000B10888EEC80E83E0D81EE11CF11C81149A
:100960009104A104B10429F7FF90EF90DF90CF909C
:10097000BF90AF909F908F900895AF92BF92CF920B
:10098000DF92EF92FF920F931F93CF93DF936C014F
:100990007B018B01040F151FEB015E01AE18BF0830
:1009A000C017D10759F06991D601ED91FC910190E2
:1009B000F081E02DC6011995892B79F7C501DF91EA
:1009C000CF911F910F91FF90EF90DF90CF90BF904C
:1009D000AF9008958F929F92AF92BF92FF920F9324
:1009E0001F93CF93DF93FC016F3F760709F45EC03E
:1009F000653B710511F464EB70E0F0808FE28F15B8
:100A000008F44AC0828108E512E0081B110987FD3D
:100A10001395000F111F000F111F8181C8E8D0E04E
:100A2000C81BD10987FDD395CC0FDD1FCC0FDD1F6F
:100A30004E010D2E000CAA08BB089801012E000CD7
:100A4000440B550B281939094A095B09DB010E943F
:100A5000FC1124EB30E040E050E00E94D211820E05
:100A6000931EA41EB51E8C169D062CF0E801801660
:100A700091060CF4E4012297CC0FDD1F2FB7F894F8
:100A80008F2D90E0FC01EE0FFF1FE80FF91FEC52D5
:100A9000FC4FD283C1832FBFDF91CF911F910F9164
:100AA000FF90BF90AF909F908F90089570E060E0AE
:100AB000A4CF1F93CF93DF93EC01162F888180334F
:100AC00008F04EC061E0812F0E94CF028881282F5C
:100AD00030E0F901EE0FFF1FE20FF31FEC52FC4F65
:100AE0001F736081607C612B608319821A822CE005
:100AF000622F0E946B12829FB001112430E020E02F
:100B0000AB01420F531FFA01EE0FFF1FE40FF51F59
:100B1000EC52FC4F908196FD16C02F5F3F4F2C305A
:100B2000310571F7813009F51092800082E08093E1
:100B300081001092850010928400B19A80916F001C
:100B4000826080936F00E8818E2F90E0FC01EE0FB1
:100B5000FF1FE80FF91FEC52FC4F808180648083F7
:100B60008881DF91CF911F910895823061F41092B6
:100B7000900080939100109295001092940088BB91
:100B800080937100E0CF833069F41092A00082E07E
:100B90008093A1001092A5001092A40089BB8093BD
:100BA0007200D1CF8111CFCF1092200182E08093CB
:100BB000210110922501109224018ABB80937300B9
:100BC000C2CFAF92BF92CF92DF92EF92FF920F937C
:100BD0001F93CF93DF936B017A01EC01C153DC4F7C
:100BE00028813CE0389F8001399F100D1124A0908E
:100BF000D303B12C27FF1FC0FB0111821082888113
:100C00008F5F888388819801280F311D87FD3A9571
:100C1000F6012A153B051CF488818C30C4F18081D3
:100C20009181049680349C4908F473C0F601808158
:100C30009181049670C088819801280F311D87FD2D
:100C40003A952A153B05DCF68881A801480F511D0D
:100C500087FD5A95FA01EE0FFF1FE40FF51FEC52C6
:100C6000FC4F808186FFCBCF8881F801E80FF11D12
:100C700087FDFA95CF01EE0FFF1FE80FF91FEC5229
:100C8000FC4F808160E08F730E949D02B8CF80810D
:100C900091812881A801420F511D27FD5A959A0183
:100CA000FA01EE0FFF1FE20FF31FEC52FC4F218100
:100CB0003281820F931FF70191838083888198018D
:100CC000280F311D87FD3A95F901EE0FFF1FE20F46
:100CD000F31FEC52FC4F808186FF22C08881080FF1
:100CE000111D87FD1A95F801EE0FFF1FE00FF11F90
:100CF000EC52FC4F808161E08F73DF91CF911F91A7
:100D00000F91FF90EF90DF90CF90BF90AF900C9439
:100D10009D0280E49CE9F701918380838FEF8883B3
:100D2000DF91CF911F910F91FF90EF90DF90CF90C7
:100D3000BF90AF90089508951F93CF93DF93C1E0C4
:100D4000C0933B03882399F1D091B8001091BA0069
:100D50008091BC008A7B8093BC0060E084E10E94AB
:100D60009D0260E085E10E949D021092A503C09360
:100D7000A40310927F0361E084E10E949D0261E080
:100D800085E10E949D028091B9008E7F8093B90019
:100D90008091B9008D7F8093B90088E48093B8007A
:100DA00085E48093BC001093BA00D093B800DF9123
:100DB000CF911F91089520915C03260F3327331F95
:100DC00021323105ECF42091A503FC0190E080E094
:100DD000243069F082E00895A0915C032191AC0178
:100DE000445C5C4FA40FB52FB11D2C930196861760
:100DF00098F380915C03680F60935C0380E0089532
:100E000081E0089508958FEF9FEF08958FEF9FEF92
:100E1000089580913A0390E0919581959109089504
:100E2000CF92DF92EF92FF920F931F93CF93DF93B6
:100E30007C01CB018A012091AB03222389F0EB01D5
:100E40006B01C40ED51ECC15DD0569F06991D70183
:100E5000ED91FC910190F081E02DC7011995F3CF40
:100E6000642F0E94DB06C801DF91CF911F910F9183
:100E7000FF90EF90DF90CF900895CF93DF931F9274
:100E8000CDB7DEB769832091AB032223F9F020911F
:100E9000CE03203258F021E030E0FC01338322837E
:100EA00090E080E00F90DF91CF9108958091AC03A6
:100EB000E82FF0E0E355FC4F998190838F5F80939A
:100EC000AC038093CE0381E090E0ECCF61E0CE01F3
:100ED00001960E94DB06F7CFCF92DF92EF92FF924E
:100EE0000F931F93CF93DF93FC01C48121E02093E4
:100EF000AB03C093CD031092AC031092CE03838555
:100F0000682B8DE694E00E943D07D091CE03D1324C
:100F100008F092C00E9466046B017C018091A503D9
:100F2000811165C082E08093A50381E08093A403D2
:100F30008FEF8093A3031092A203D093A103ADEA95
:100F4000B3E0E1E8F3E080E0D81385C010928003BD
:100F500080918003CC0FC82BC093800380917F03C6
:100F6000813009F07CC010927F030E9466046B01FF
:100F70007C01809180038093BB008091A7039091B6
:100F8000A803A091A903B091AA03892B8A2B8B2BCC
:100F900099F00E9466040091A7031091A803209184
:100FA000A9033091AA036C197D098E099F090617C0
:100FB000170728073907E0F18091BC0083FDD9CFDE
:100FC00085EC8093BC000E9466046B017C018091DB
:100FD000A503823009F445C08091A3038F3F61F1DE
:100FE0008091A303803241F18091A30325C08091B9
:100FF000A7039091A803A091A903B091AA03892BFC
:101000008A2B8B2B09F48ACF0E9466040091A703D8
:101010001091A8032091A9033091AA036C197D09AE
:101020008E099F09061717072807390708F076CF9A
:101030008091A6030E949C061092AC031092CE03EE
:101040001092AB03DF91CF911F910F91FF90EF9022
:10105000DF90CF9008959D9191938F5F75CF85EE2E
:10106000B0CF8091A7039091A803A091A903B0915C
:10107000AA03892B8A2B8B2B09F4A9CF0E94660423
:101080000091A7031091A8032091A9033091AA030E
:101090006C197D098E099F0906171707280739075C
:1010A00008F095CFC5CF90E080E00895CF93DF930F
:1010B000D0E0C0E0BE0188E894E00E94EA046AE063
:1010C00070E080E090E00E948B042196C53BD10542
:1010D00089F7DF91CF9108950F931F93CF938C01E0
:1010E000C62F0E946C076C2F6460C8010E946C07B9
:1010F0006C2F6B7FC8010E946C0783EC90E0019716
:10110000F1F7CF911F910F9108950F931F93CF93F4
:10111000DF938C01D62FC42F607F642B0E946C0854
:1011200080E1D89FB00111246C2BC801DF91CF91D1
:101130001F910F910C946C08CF93DF9300D000D0D7
:101140001F921F92CDB7DEB798E0E9E1F2E0DE0131
:10115000119601900D929A95E1F7909102059817DA
:1011600008F48FEF90E0880F991F21E030E02C0FFA
:101170003D1F820F931FFC016081606840E08AEF91
:1011800094E028960FB6F894DEBF0FBECDBFDF9176
:10119000CF910C94850840E061E08AEF94E00E94D2
:1011A00085088BE39FE10197F1F7089541E00E94E4
:1011B000850881E090E008958F929F92AF92BF9250
:1011C0000F931F93CF93DF93CDB7DEB7A1970FB6E1
:1011D000F894DEBF0FBECDBF19A2423008F44AE03A
:1011E0008E010F5D1F4F842E912CB12CA12CA501D7
:1011F00094010E940412E62FB901CA01EA3044F5B5
:10120000E05DD801EE938D01232B242B252B79F75C
:1012100090E080E0109769F0FD0101900020E9F76F
:101220003197AF014A1B5B0BBD018AEF94E00E942E
:10123000BD04A1960FB6F894DEBF0FBECDBFDF91FF
:10124000CF911F910F91BF90AF909F908F90089575
:10125000E95CD7CFCF92DF92EF92FF926C01990FAA
:10126000EE08FF08F7FE16C041E06DE28AEF94E059
:101270000E94850866277727CB016C197D098E09A6
:101280009F094AE00E94DC080196FF90EF90DF90F2
:10129000CF9008954AE0C701B601FF90EF90DF902C
:1012A000CF900C94DC08FC0101900020E9F7319705
:1012B000AF01481B590BBC018AEF94E00C94BD04AC
:1012C0000F931F93CF93DF93EC018881998100974F
:1012D00059F02A813B812617370730F081E0DF91F2
:1012E000CF911F910F9108958B016F5F7F4F0E94E7
:1012F000A413009759F0998388831B830A832C8158
:101300003D81232B59F7FC011082E8CF80E0E7CF25
:1013100085ED8093BC008091A7039091A803A091D4
:10132000A903B091AA030796A11DB11D23E0B695AC
:10133000A795979587952A95D1F72091BC0024FD14
:1013400003C01092A50308954091A7035091A803EC
:101350006091A9037091AA03452B462B472B69F393
:101360000097A105B10541F02AE22A95F1F700C0E6
:101370000197A109B109E1CF8091A6030C949C06C5
:101380001F920F920FB60F9211242F933F938F93BA
:101390009F93AF93BF938091690490916A04A09149
:1013A0006B04B0916C043091640423E0230F2D375B
:1013B00058F50196A11DB11D209364048093690422
:1013C00090936A04A0936B04B0936C0480916504BD
:1013D00090916604A0916704B09168040196A11DE4
:1013E000B11D8093650490936604A0936704B09345
:1013F0006804BF91AF919F918F913F912F910F9072
:101400000FBE0F901F90189526E8230F0296A11D7E
:10141000B11DD2CF1F920F920FB60F9211240BB6AF
:101420000F922F933F934F935F936F937F938F937D
:101430009F93AF93BF93EF93FF9348E251E064E231
:1014400071E090E080E00E94E105FF91EF91BF9193
:10145000AF919F918F917F916F915F914F913F914C
:101460002F910F900BBE0F900FBE0F901F901895ED
:101470001F920F920FB60F9211240BB60F922F935B
:101480003F934F935F936F937F938F939F93AF930C
:10149000BF93EF93FF9348EA50E064EA70E083E083
:1014A00090E00E94E105FF91EF91BF91AF919F9174
:1014B0008F917F916F915F914F913F912F910F90FD
:1014C0000BBE0F900FBE0F901F9018951F920F929A
:1014D0000FB60F9211240BB60F922F933F934F9399
:1014E0005F936F937F938F939F93AF93BF93EF938C
:1014F000FF9348E950E064E970E082E090E00E94E8
:10150000E105FF91EF91BF91AF919F918F917F91F5
:101510006F915F914F913F912F910F900BBE0F9064
:101520000FBE0F901F9018951F920F920FB60F923B
:1015300011240BB60F922F933F934F935F936F93AA
:101540007F938F939F93AF93BF93EF93FF9348E85D
:1015500050E064E870E081E090E00E94E105FF91D6
:10156000EF91BF91AF919F918F917F916F915F911B
:101570004F913F912F910F900BBE0F900FBE0F9088
:101580001F9018951F920F920FB60F9211240BB651
:101590000F922F933F934F935F936F937F938F930C
:1015A0009F93AF93BF93EF93FF938091B900887F90
:1015B000803609F44DC008F040C0883209F4A7C055
:1015C00028F5803109F49BC0C8F4882309F4F7C0DA
:1015D000883009F494C0FF91EF91BF91AF919F9132
:1015E0008F917F916F915F914F913F912F910F90CC
:1015F0000BBE0F900FBE0F901F901895883109F405
:1016000086C0803241F78093A30314C0803409F46C
:101610009BC040F48033B9F38833E9F68093A30389
:1016200085ECAEC0803509F483C0883509F494C0D8
:10163000883489F60E948809CECF883909F48AC097
:1016400038F5883729F050F4883611F0803719F6CC
:1016500083E08093A50310927E0355C0883809F477
:1016600079C0803919F0803809F0B5CF80917E03B8
:10167000803208F06FC0E0917E0381E08E0F80938E
:101680007E038091BB00F0E0E25AFC4F80833BC0B8
:10169000803B39F0D0F4803A09F477C0883A09F0F9
:1016A0009ACF84E08093A50310925D0310925C03AF
:1016B000F0E0E0E0199580915C0381110FC081E0BA
:1016C00080935C0310923C0309C0803C09F4A8CFCE
:1016D000883C09F4A5CF883B09F07DCFE0915D03FC
:1016E00081E08E0F80935D03F0E0E45CFC4F80812D
:1016F0008093BB0090915D0380915C0329C0809131
:1017000080038093BB0085EC8093BC0064CF9091F4
:10171000A2038091A103981758F5E091A20381E0FC
:101720008E0F8093A203F0E0EF57FC4F8081E9CF4A
:10173000E091A20381E08E0F8093A2038091BB0011
:10174000F0E0EF57FC4F80839091A2038091A103BA
:101750009817C8F285E8D8CFE091A20381E08E0FF8
:101760008093A2038091BB00F0E0EF57FC4F808391
:101770008091A40381115ECF81E080937F0384EA8E
:101780008093BC001092A50326CF85EC8093BC000B
:101790001092A50380917E03803230F4E0917E03A5
:1017A000F0E0E25AFC4F108260917E0370E08EE51B
:1017B00093E0F0E0E0E0199510927E030CCF1092D8
:1017C000A30338CFCF92DF92EF92FF920F931F9334
:1017D000E82FF92F05C0015011092109310961F1E4
:1017E000908196239417B9F305C00150110921097E
:1017F000310911F1908196239413F7CFC12CD12C8C
:10180000E12CF12C0AC08FEFC81AD80AE80AF80AAE
:101810000C151D052E053F0579F080818623841760
:1018200091F36C2D7D2D8E2D9F2D1F910F91FF908B
:10183000EF90DF90CF90089560E070E080E090E05E
:101840001F910F91FF90EF90DF90CF900895FC01D2
:101850009091D303903398F481E0890F8093D30360
:101860009083892F90E0FC01EE0FFF1FE80FF91F16
:10187000EC52FC4F88EB9BE09283818308958FEFBD
:10188000808308951092700410926F0488EE93E0A4
:10189000A0E0B0E08093710490937204A09373046D
:1018A000B093740487E392E090936E0480936D0488
:1018B0001092FD041092FC0483E592E09093FB04E7
:1018C0008093FA0487E28093FE0480E1809303050D
:1018D00082E0809304051092050510928D04109209
:1018E0009104109290041092920489E492E09093F3
:1018F0008C0480938B04E7EAF4E010821482138254
:101900001582369684E0E33EF807B9F787E092E067
:101910009093EE048093ED0484E092E09093F004C1
:101920008093EF0483E08093F1048093F2048AE0D3
:1019300092E09093EC048093EB048AE090E0909323
:10194000F4048093F30484EF91E09093F604809381
:10195000F5041092F9041092F8041092E704109222
:10196000E8041092E9041092EA041092F70488E85F
:1019700094E00E94270C85E894E00E94270C82E8FE
:1019800094E00E94270C8FE794E00E94270C1092AD
:101990007A041092790410927C0410927B041092C5
:1019A0007E0410927D0463E070E089E794E00E9479
:1019B00060092091790430917A04811113C02115B6
:1019C000310519F0C9010E941B1310927A0410927C
:1019D000790410927E0410927D0410927C0410927F
:1019E0007B04089583E090E090937E0480937D04CF
:1019F0006BE572E0C9010C949714CF93DF9300D08C
:101A000000D01F921F92CDB7DEB7789484B5826064
:101A100084BD84B5816084BD85B5826085BD85B592
:101A2000816085BD80916E00816080936E00109210
:101A3000810080918100826080938100809181008B
:101A4000816080938100809180008160809380001C
:101A50008091B10084608093B1008091B00081607A
:101A60008093B0008091910082608093910080917A
:101A700091008160809391008091900081608093BB
:101A800090008091A10082608093A1008091A100CC
:101A900081608093A1008091A00081608093A0006C
:101AA00080912101826080932101809121018160D8
:101AB0008093210180912001816080932001809199
:101AC0007A00846080937A0080917A0082608093AB
:101AD0007A0080917A00816080937A0080917A0008
:101AE000806880937A001092C10060E086E00E94D6
:101AF000CF0260E08CE00E94CF028091FF048860FA
:101B00008093FF0442E0F42EF092020562E370E05D
:101B100080E090E00E948B04609105058AEF94E0DC
:101B20000E946C0768EE73E080E090E00E948B04F6
:101B300060E38AEF94E00E946C080BE416E4C801AD
:101B40000197F1F760E38AEF94E00E946C08C80106
:101B50000197F1F760E38AEF94E00E946C0883E557
:101B600092E00197F1F760E28AEF94E00E946C083E
:101B70006091FF04606240E08AEF94E00E94850873
:101B800084E08093000540E06CE08AEF94E00E94DE
:101B900085080E94CB08F092010540E066E08AEFDC
:101BA00094E00E94850840E062E08AEF94E00E94A1
:101BB00085088BE39FE10197F1F788E080930505A5
:101BC00060E08AEF94E00E946C0780E00E949C082D
:101BD0008FE592E00E9453096AE070E088E894E0A3
:101BE0000E94590568E070E085E894E00E9459057C
:101BF00069E070E082E894E00E9459056BE070E0D3
:101C00008FE794E00E94590570E060E088E894E076
:101C10000E94EA0461E08FE00E94CF0260E08EE063
:101C20000E94CF0261E081E10E94CF0260E080E18A
:101C30000E94CF0261E083E10E94CF0260E082E176
:101C40000E94CF0261E086E10E94CF0260E086E15F
:101C50000E949D0261E087E10E94CF0260E087E17F
:101C60000E949D0261E088E10E94CF0260E088E16D
:101C70000E949D0253E0252E312C63E2462E512C0A
:101C800073E0872E912C9DE2E92E92E0F92E27E257
:101C9000A22E22E0B22E31E2C32E32E0D32EF70183
:101CA000019111917F01F5017080F2E0AF0EB11C3E
:101CB00060E0872D0E949D02C1010197F1F761E06C
:101CC000872D0E949D02C2010197F1F760E0872DE8
:101CD0000E949D021127F801E850FE4F6491F8011F
:101CE000EE54FE4FE491F0E0EE0FFF1FE856FE4F7A
:101CF0008591949100E412E42FE030E0462F0E9499
:101D0000E20B611571058105910529F06F5F7F4F29
:101D10008F4F9F4F9F70F6011081F2E0CF0ED11CC4
:101D2000072E000C880B990B0E94D91026E933E48A
:101D30004BE05DE30E94141120E030E040E05FE3FF
:101D40000E9414110E943512623371050CF071C0AB
:101D500061E0812F0E949D0223E3E21622E0F20659
:101D600009F09DCF86E00E947102019709F06EC1D3
:101D70000E94CB0880E00E949C0880E792E00E94CD
:101D8000530968EE73E080E090E00E948B040E94AB
:101D9000CB0880E00E949C088EE792E00E945309E5
:101DA0001A8219821C821B821E821D8270E060E0F2
:101DB000CE0101960E94600929813A8181113BC0C0
:101DC0002115310519F0C9010E941B131A821982CD
:101DD0001E821D821C821B8281E00E949C088D81D4
:101DE0009E818330910578F50E940F038823B9F313
:101DF0008F8318860D811E810F5F1F4FB801CE01A2
:101E000001960E946009882369F029813A818D81B9
:101E10009E81BE01695F7F4F820F931F0E949714BE
:101E20001E830D8341E06AE28AEF94E00E948508F8
:101E3000D6CF60E08ECF1E821D8263EB72E0C901B7
:101E40000E949714C9CF20917D0430917E042817F9
:101E5000390709F0BAC089819A816091790470913B
:101E60007A04009709F42AC16115710521F4FC0177
:101E7000808190E02CC10E948E1429C180E00E94D4
:101E80009C0881ED92E00E94530981E00E949C0829
:101E900089ED92E00E9453090E940F038133E1F71C
:101EA0000E94CB0880E00E949C0888EE92E00E948D
:101EB0005309009100021091010201501109109381
:101EC00001020093000264EF71E080E090E00E9464
:101ED0008B040230110509F04DC010E000E0B8019C
:101EE00085E894E00E94EA046AE070E080E090E017
:101EF0000E948B040F5F1F4F053B110581F78981FD
:101F00009A81009711F00E941B138CE00E947102CD
:101F1000019741F580910002909101020196909302
:101F20000102809300028130910509F09FC004EB0B
:101F300010E0B8018FE794E00E94EA046AE070E0E4
:101F400080E090E00E948B040150110990F70E94FC
:101F5000CB0880E00E949C0886E393E00E9453092E
:101F60000E945608E0E0F0E0EF2B09F48CCE0E94CE
:101F7000000089CE0130110599F410E000E0B801AD
:101F800082E894E00E94EA046AE070E080E090E079
:101F90000E948B040F5F1F4F053B110581F7AFCFE8
:101FA0000115110509F0ABCFB8018FE794E00E944D
:101FB000EA046AE070E080E090E00E948B040F5F2A
:101FC0001F4F053B110581F79ACF80910202909136
:101FD0000302019790930302809302020E94CB08B0
:101FE00080E00E949C0888EF92E00E94530981E003
:101FF0000E949C0886E093E00E94530980910202AF
:10200000909103020E942A0980910202909103029A
:10201000892B09F0BCC00E94CB0880E00E949C087C
:1020200086E193E00E94530981E00E949C088DE1C3
:1020300093E00E94530964EF71E080E090E00E9419
:102040008B049092030280920202A1C00E94CB08EE
:1020500080E00E949C0889E293E00E94530964EFAB
:1020600071E080E090E00E948B044FCF82309105B8
:1020700089F404EB10E0B80182E894E00E94EA04DD
:102080006AE070E080E090E00E948B04015011094A
:1020900090F75DCF039709F05ACF04EB10E0B80139
:1020A00085E894E00E94EA046AE070E080E090E055
:1020B0000E948B040150110990F749CF61157105F9
:1020C00049F0FB01808190E0919581959109892BE0
:1020D00009F07BCF90920302809202020E94CB080B
:1020E00080E00E949C0889E892E00E9453090E94C7
:1020F00056080E94CB0880E00E949C0889E992E083
:102100000E9453096AEF70E080E090E00E948B0427
:1021100004EB10E0B80188E894E00E94EA0465E06E
:1021200070E080E090E00E948B040150110990F76C
:102130000E94CB0880E00E949C0886EA92E00E9400
:10214000530980910002909101020E942A0964EFD4
:1021500071E080E090E00E948B040E94CB088091A7
:10216000000290910102181619060CF487CE0E9405
:10217000CB0880E00E949C0884EB92E00E94530907
:1021800081E00E949C088CEB92E00E94530964EF6E
:1021900071E080E090E00E948B04B1CE80917904E0
:1021A00090917A04009711F00C941B130895E89411
:1021B00009C097FB3EF490958095709561957F4F8F
:1021C0008F4F9F4F9923A9F0F92F96E9BB2793953D
:1021D000F695879577956795B795F111F8CFFAF44D
:1021E000BB0F11F460FF1BC06F5F7F4F8F4F9F4F7E
:1021F00016C0882311F096E911C0772321F09EE8DC
:10220000872F762F05C0662371F096E8862F70E041
:1022100060E02AF09A95660F771F881FDAF7880F1B
:102220009695879597F908950E9427110C94981117
:102230000E948A1138F00E94911120F0952311F02C
:102240000C9481110C94871111240C94CC110E94D0
:10225000A91170F3959FC1F3950F50E0551F629F30
:10226000F001729FBB27F00DB11D639FAA27F00DEF
:10227000B11DAA1F649F6627B00DA11D661F829F16
:102280002227B00DA11D621F739FB00DA11D621FFB
:10229000839FA00D611D221F749F3327A00D611D18
:1022A000231F849F600D211D822F762F6A2F1124FA
:1022B0009F5750409AF0F1F088234AF0EE0FFF1F2D
:1022C000BB1F661F771F881F91505040A9F79E3F84
:1022D000510580F00C9481110C94CC115F3FE4F314
:1022E000983ED4F3869577956795B795F795E795DA
:1022F0009F5FC1F7FE2B880F911D9695879597F9E3
:10230000089597F99F6780E870E060E008959FEF77
:1023100080EC089500240A9416161706180609067C
:10232000089500240A94121613061406050608954B
:10233000092E0394000C11F4882352F0BB0F40F4D3
:10234000BF2B11F460FF04C06F5F7F4F8F4F9F4F13
:10235000089557FD9058440F551F59F05F3F71F095
:102360004795880F97FB991F61F09F3F79F08795FC
:102370000895121613061406551FF2CF4695F1DF85
:1023800008C0161617061806991FF1CF8695710515
:10239000610508940895E894BB2766277727CB0149
:1023A00097F90895052E97FB1EF400940E94E911F9
:1023B00057FD07D00E94041207FC03D04EF40C9482
:1023C000E91150954095309521953F4F4F4F5F4F04
:1023D000089590958095709561957F4F8F4F9F4F91
:1023E00008950E942612A59F900DB49F900DA49F62
:1023F000800D911D11240895B7FF0C94F1110E94D6
:10240000F111821B930B0895A1E21A2EAA1BBB1B8C
:10241000FD010DC0AA1FBB1FEE1FFF1FA217B307B0
:10242000E407F50720F0A21BB30BE40BF50B661FC6
:10243000771F881F991F1A9469F76095709580958A
:1024400090959B01AC01BD01CF010895A29FB00101
:10245000B39FC001A39F700D811D1124911DB29FD8
:10246000700D811D1124911D08950E943C126894E5
:10247000B1110C94CC1108950E94B11188F09F57AE
:1024800098F0B92F9927B751B0F0E1F0660F771F98
:10249000881F991F1AF0BA95C9F714C0B13091F08E
:1024A0000E94CB11B1E008950C94CB11672F782FC7
:1024B0008827B85F39F0B93FCCF386957795679553
:1024C000B395D9F73EF490958095709561957F4FBF
:1024D0008F4F9F4F0895991B79E004C0991F96175D
:1024E00008F0961B881F7A95C9F780950895EE0F1E
:1024F000FF1F881F8BBF0790F691E02D19940F9353
:102500001F93CF93DF938230910510F482E090E027
:10251000E0910805F091090530E020E0B0E0A0E08E
:10252000309799F42115310509F44AC0281B390B5D
:1025300024303105D8F58A819B816115710589F1B7
:10254000FB0193838283FE0111C04081518102818E
:10255000138148175907E0F04817590799F4109765
:1025600061F012960C93129713961C933296CF013A
:10257000DF91CF911F910F9108950093080510935B
:102580000905F4CF2115310551F04217530738F0F2
:10259000A901DB019A01BD01DF01F801C1CFEF0103
:1025A000F9CF9093090580930805CDCFFE01E20F86
:1025B000F31F819391932250310939832883D7CF18
:1025C0002091060530910705232B41F42091150237
:1025D00030911602309307052093060520911302CF
:1025E000309114022115310541F42DB73EB74091C9
:1025F000170250911802241B350BE0910605F0914B
:102600000705E217F307A0F42E1B3F0B2817390725
:1026100078F0AC014E5F5F4F2417350748F04E0F3E
:102620005F1F5093070540930605819391939FCFB9
:10263000F0E0E0E09CCFCF93DF930097E9F0FC015E
:10264000329713821282A0910805B0910905ED011D
:1026500030E020E01097A1F420813181820F931F98
:1026600020910605309107052817390709F061C048
:10267000F0930705E0930605DF91CF910895EA01F5
:10268000CE17DF07E8F54A815B819E0141155105B0
:10269000B1F7E901FB83EA8349915991C40FD51F32
:1026A000EC17FD0761F4808191810296840F951FDC
:1026B000E90199838883828193819B838A83F0E0F7
:1026C000E0E012968D919C9113970097B9F52D91AA
:1026D0003C911197CD010296820F931F2091060520
:1026E000309107052817390739F6309751F51092C0
:1026F000090510920805B0930705A0930605BCCF05
:10270000D383C28340815181840F951FC817D90795
:1027100061F44E5F5F4F88819981480F591F518343
:1027200040838A819B81938382832115310509F03F
:10273000B0CFF0930905E09308059ECFFD01DC01C1
:10274000C0CF13821282D7CF4F925F926F927F9247
:102750008F929F92AF92BF92CF92DF92EF92FF92B1
:102760000F931F93CF93DF938C01009799F4CB01C4
:10277000DF91CF911F910F91FF90EF90DF90CF905D
:10278000BF90AF909F908F907F906F905F904F9091
:102790000C947F12FC01E60FF71F9C0122503109B7
:1027A000E217F30708F4AEC0D901CD91DC9111977F
:1027B000C617D70720F1C530D10578F0CE010497B0
:1027C0008617970750F0C61BD70B2297C193D1935A
:1027D0006D937C93CF010E941B13C801DF91CF91B1
:1027E0001F910F91FF90EF90DF90CF90BF90AF902F
:1027F0009F908F907F906F905F904F9008955B01B6
:10280000AC1ABD0A4C018C0E9D1EA0910805B0911A
:102810000905512C412CF12CE12C109731F58091B8
:102820000605909107058815990509F05CC04616C4
:10283000570608F058C08091130290911402009737
:1028400041F48DB79EB74091170250911802841B36
:10285000950BE817F90708F055C0F0930705E093CA
:102860000605F90171836083B8CF8D919C91119712
:1028700012966C90129713967C901397A815B90531
:1028800059F56C0142E0C40ED11CCA14DB0420F1DE
:10289000AC014A195B09DA011296159780F0628241
:1028A000738251834083D9016D937C93E114F104C9
:1028B00071F0D7011396FC93EE9312978ECF229668
:1028C0008C0F9D1FF90191838083F301EFCFF0936B
:1028D0000905E093080581CF4816590608F42C0134
:1028E0007D01D3019ACFCB010E947F127C0100971A
:1028F00049F0AE01B8010E948514C8010E941B1363
:1029000087016BCF10E000E068CFFB01DC0102C063
:1029100001900D9241505040D8F70895FB01DC0121
:102920008D91019080190110D9F3990B0895FB0145
:10293000DC0101900D920020E1F7089511E0C3E45D
:10294000D1E000E006C0802FFE010E9477122196A0
:10295000011DC434D10780E00807A9F7F894FFCF20
:10296000030003000304050001023132333435361D
:1029700037383900000A0580000000400014005478
:10298000001600170018000F00110013000E0010B1
:10299000001200000000003D07100753080207095D
:1029A0000706070307000000000B03CB029A020092
:1029B000000000D608BD0453089B06313233007373
:1029C0006D617274206761726167652E2E2E2E0014
:1029D00077656C636F6D652E2E2E2E2E3A00656E18
:1029E000746572206964203A004F70656E696E6785
:1029F00020446F6F722E2E2E00446F6F7220697309
:102A0000204F70656E00415641494C20534C4F5445
:102A1000533A2000536F727279202100416C6C2070
:102A2000736C6F74732061726520626F6F6B656485
:102A300000656E746572203100746F20626F6F6B79
:102A4000206120736C6F740050726F636573732024
:102A50007375636365737300414343455353204467
:102A6000454E49454400417474656D707473206C23
:102A70006566743A200048454C50203F0043414C65
:102A80004C3A20313635393100536D61727420670C
:0A2A900061726167650070617900F2
:00000001FF
